{
  "_format": "hh-sol-artifact-1",
  "contractName": "FlashLoan",
  "sourceName": "contracts/FlashLoan.sol",
  "abi": [
    {
      "inputs": [
        {
          "internalType": "address",
          "name": "addressesProvider",
          "type": "address"
        }
      ],
      "stateMutability": "nonpayable",
      "type": "constructor"
    },
    {
      "inputs": [],
      "name": "EnforcedPause",
      "type": "error"
    },
    {
      "inputs": [],
      "name": "ExpectedPause",
      "type": "error"
    },
    {
      "inputs": [
        {
          "internalType": "address",
          "name": "owner",
          "type": "address"
        }
      ],
      "name": "OwnableInvalidOwner",
      "type": "error"
    },
    {
      "inputs": [
        {
          "internalType": "address",
          "name": "account",
          "type": "address"
        }
      ],
      "name": "OwnableUnauthorizedAccount",
      "type": "error"
    },
    {
      "inputs": [],
      "name": "ReentrancyGuardReentrantCall",
      "type": "error"
    },
    {
      "inputs": [
        {
          "internalType": "address",
          "name": "token",
          "type": "address"
        }
      ],
      "name": "SafeERC20FailedOperation",
      "type": "error"
    },
    {
      "anonymous": false,
      "inputs": [
        {
          "indexed": true,
          "internalType": "address",
          "name": "tokenIn",
          "type": "address"
        },
        {
          "indexed": true,
          "internalType": "address",
          "name": "tokenOut",
          "type": "address"
        },
        {
          "indexed": false,
          "internalType": "uint256",
          "name": "amountBorrowed",
          "type": "uint256"
        },
        {
          "indexed": false,
          "internalType": "uint256",
          "name": "profit",
          "type": "uint256"
        }
      ],
      "name": "ArbitrageExecuted",
      "type": "event"
    },
    {
      "anonymous": false,
      "inputs": [
        {
          "indexed": true,
          "internalType": "address",
          "name": "previousOwner",
          "type": "address"
        },
        {
          "indexed": true,
          "internalType": "address",
          "name": "newOwner",
          "type": "address"
        }
      ],
      "name": "OwnershipTransferStarted",
      "type": "event"
    },
    {
      "anonymous": false,
      "inputs": [
        {
          "indexed": true,
          "internalType": "address",
          "name": "previousOwner",
          "type": "address"
        },
        {
          "indexed": true,
          "internalType": "address",
          "name": "newOwner",
          "type": "address"
        }
      ],
      "name": "OwnershipTransferred",
      "type": "event"
    },
    {
      "anonymous": false,
      "inputs": [
        {
          "indexed": false,
          "internalType": "address",
          "name": "account",
          "type": "address"
        }
      ],
      "name": "Paused",
      "type": "event"
    },
    {
      "anonymous": false,
      "inputs": [
        {
          "indexed": true,
          "internalType": "address",
          "name": "router",
          "type": "address"
        },
        {
          "indexed": false,
          "internalType": "bool",
          "name": "approved",
          "type": "bool"
        }
      ],
      "name": "RouterApprovalUpdated",
      "type": "event"
    },
    {
      "anonymous": false,
      "inputs": [
        {
          "indexed": false,
          "internalType": "address",
          "name": "account",
          "type": "address"
        }
      ],
      "name": "Unpaused",
      "type": "event"
    },
    {
      "anonymous": false,
      "inputs": [
        {
          "indexed": true,
          "internalType": "address",
          "name": "account",
          "type": "address"
        },
        {
          "indexed": false,
          "internalType": "bool",
          "name": "allowed",
          "type": "bool"
        }
      ],
      "name": "WhitelistUpdated",
      "type": "event"
    },
    {
      "anonymous": false,
      "inputs": [
        {
          "indexed": true,
          "internalType": "address",
          "name": "token",
          "type": "address"
        },
        {
          "indexed": true,
          "internalType": "address",
          "name": "to",
          "type": "address"
        },
        {
          "indexed": false,
          "internalType": "uint256",
          "name": "amount",
          "type": "uint256"
        }
      ],
      "name": "Withdrawn",
      "type": "event"
    },
    {
      "anonymous": false,
      "inputs": [
        {
          "indexed": true,
          "internalType": "address",
          "name": "to",
          "type": "address"
        },
        {
          "indexed": false,
          "internalType": "uint256",
          "name": "amount",
          "type": "uint256"
        }
      ],
      "name": "WithdrawnETH",
      "type": "event"
    },
    {
      "inputs": [],
      "name": "ADDRESSES_PROVIDER",
      "outputs": [
        {
          "internalType": "contract IPoolAddressesProvider",
          "name": "",
          "type": "address"
        }
      ],
      "stateMutability": "view",
      "type": "function"
    },
    {
      "inputs": [],
      "name": "DEX_V2",
      "outputs": [
        {
          "internalType": "uint8",
          "name": "",
          "type": "uint8"
        }
      ],
      "stateMutability": "view",
      "type": "function"
    },
    {
      "inputs": [],
      "name": "DEX_V3",
      "outputs": [
        {
          "internalType": "uint8",
          "name": "",
          "type": "uint8"
        }
      ],
      "stateMutability": "view",
      "type": "function"
    },
    {
      "inputs": [],
      "name": "POOL",
      "outputs": [
        {
          "internalType": "contract IPool",
          "name": "",
          "type": "address"
        }
      ],
      "stateMutability": "view",
      "type": "function"
    },
    {
      "inputs": [],
      "name": "acceptOwnership",
      "outputs": [],
      "stateMutability": "nonpayable",
      "type": "function"
    },
    {
      "inputs": [
        {
          "internalType": "address",
          "name": "account",
          "type": "address"
        }
      ],
      "name": "addToWhitelist",
      "outputs": [],
      "stateMutability": "nonpayable",
      "type": "function"
    },
    {
      "inputs": [
        {
          "internalType": "address",
          "name": "",
          "type": "address"
        }
      ],
      "name": "approvedRouters",
      "outputs": [
        {
          "internalType": "bool",
          "name": "",
          "type": "bool"
        }
      ],
      "stateMutability": "view",
      "type": "function"
    },
    {
      "inputs": [
        {
          "internalType": "address",
          "name": "asset",
          "type": "address"
        },
        {
          "internalType": "uint256",
          "name": "amount",
          "type": "uint256"
        },
        {
          "internalType": "uint256",
          "name": "premium",
          "type": "uint256"
        },
        {
          "internalType": "address",
          "name": "initiator",
          "type": "address"
        },
        {
          "internalType": "bytes",
          "name": "params",
          "type": "bytes"
        }
      ],
      "name": "executeOperation",
      "outputs": [
        {
          "internalType": "bool",
          "name": "",
          "type": "bool"
        }
      ],
      "stateMutability": "nonpayable",
      "type": "function"
    },
    {
      "inputs": [],
      "name": "owner",
      "outputs": [
        {
          "internalType": "address",
          "name": "",
          "type": "address"
        }
      ],
      "stateMutability": "view",
      "type": "function"
    },
    {
      "inputs": [],
      "name": "pause",
      "outputs": [],
      "stateMutability": "nonpayable",
      "type": "function"
    },
    {
      "inputs": [],
      "name": "paused",
      "outputs": [
        {
          "internalType": "bool",
          "name": "",
          "type": "bool"
        }
      ],
      "stateMutability": "view",
      "type": "function"
    },
    {
      "inputs": [],
      "name": "pendingOwner",
      "outputs": [
        {
          "internalType": "address",
          "name": "",
          "type": "address"
        }
      ],
      "stateMutability": "view",
      "type": "function"
    },
    {
      "inputs": [
        {
          "internalType": "address",
          "name": "account",
          "type": "address"
        }
      ],
      "name": "removeFromWhitelist",
      "outputs": [],
      "stateMutability": "nonpayable",
      "type": "function"
    },
    {
      "inputs": [],
      "name": "renounceOwnership",
      "outputs": [],
      "stateMutability": "nonpayable",
      "type": "function"
    },
    {
      "inputs": [
        {
          "internalType": "address",
          "name": "asset",
          "type": "address"
        },
        {
          "internalType": "uint256",
          "name": "amount",
          "type": "uint256"
        },
        {
          "internalType": "bytes",
          "name": "params",
          "type": "bytes"
        }
      ],
      "name": "requestFlashLoan",
      "outputs": [],
      "stateMutability": "nonpayable",
      "type": "function"
    },
    {
      "inputs": [
        {
          "internalType": "address",
          "name": "router",
          "type": "address"
        },
        {
          "internalType": "bool",
          "name": "approved",
          "type": "bool"
        }
      ],
      "name": "setRouterApproval",
      "outputs": [],
      "stateMutability": "nonpayable",
      "type": "function"
    },
    {
      "inputs": [
        {
          "internalType": "address",
          "name": "newOwner",
          "type": "address"
        }
      ],
      "name": "transferOwnership",
      "outputs": [],
      "stateMutability": "nonpayable",
      "type": "function"
    },
    {
      "inputs": [],
      "name": "unpause",
      "outputs": [],
      "stateMutability": "nonpayable",
      "type": "function"
    },
    {
      "inputs": [
        {
          "internalType": "address",
          "name": "",
          "type": "address"
        }
      ],
      "name": "whitelist",
      "outputs": [
        {
          "internalType": "bool",
          "name": "",
          "type": "bool"
        }
      ],
      "stateMutability": "view",
      "type": "function"
    },
    {
      "inputs": [
        {
          "internalType": "address",
          "name": "token",
          "type": "address"
        }
      ],
      "name": "withdraw",
      "outputs": [],
      "stateMutability": "nonpayable",
      "type": "function"
    },
    {
      "inputs": [],
      "name": "withdrawETH",
      "outputs": [],
      "stateMutability": "nonpayable",
      "type": "function"
    },
    {
      "stateMutability": "payable",
      "type": "receive"
    }
  ],
  "bytecode": "0x60a03461018657601f61165438819003918201601f19168301916001600160401b0383118484101761018b5780849260209460405283398101031261018657516001600160a01b0381169081900361018657331561017057600180546001600160a01b031990811690915560008054339281168317825560405192916001600160a01b03909116907f8be0079c531659141344cd1fd0a4f28419497f9722a3daafe3b4186f6b6457e09080a360017f9b779b17422d0df92223018b32b4d1fa46e071723d6817e2486d003becc55f0055811561013e57506080523360005260026020526040600020600160ff19825416179055604051600181527ff93f9a76c1bf3444d22400a00cb9fe990e6abe9dbb333fda48859cfee864543d60203392a26040516114b290816101a28239608051818181610d330152610ec80152f35b62461bcd60e51b815260206004820152600d60248201526c2d32b93790383937bb34b232b960991b6044820152606490fd5b631e4fbdf760e01b600052600060045260246000fd5b600080fd5b634e487b7160e01b600052604160045260246000fdfe608080604052600436101561001d575b50361561001b57600080fd5b005b600090813560e01c9081630542975c14610d1f575080631b11d0ff14610a425780633f4ba83a146109d2578063445b1e4b1461099357806347c1a9be146109085780634d41e2cc146108ec5780635107d61e1461079357806351cff8d9146105fc5780635c975abb146105d6578063715018a6146105715780637535d2461461054457806379ba5097146104bf5780638456cb591461045c5780638ab1d681146103ef5780638da5cb5b146103c85780639b19251a14610389578063a7d71cb71461036d578063e086e5ec14610220578063e30c3978146101f7578063e43252d71461017c5763f2fde38b0361000f573461017957602036600319011261017957610126610d66565b61012e6113d7565b600180546001600160a01b0319166001600160a01b0392831690811790915582549091167f38d16b8cac22d99fc7c124b9cd0de2d3fa1faef420bfe791d8c362d765e227008380a380f35b80fd5b503461017957602036600319011261017957610196610d66565b61019e6113d7565b6001600160a01b03166101b2811515610e40565b808252600260205260408220600160ff198254161790557ff93f9a76c1bf3444d22400a00cb9fe990e6abe9dbb333fda48859cfee864543d602060405160018152a280f35b50346101795780600319360112610179576001546040516001600160a01b039091168152602090f35b50346101795780600319360112610179576102396113d7565b610241611400565b47801561033757818080808460018060a01b038254165af13d15610332573d67ffffffffffffffff811161031e5760405190610287601f8201601f191660200183610e7b565b81528360203d92013e5b156102e35781546040519182526001600160a01b0316907f5817fe91d2748c33f168d8a78037fc073adaf6ec8e3613a758d44a2cfae4563d90602090a2600160008051602061145d8339815191525580f35b60405162461bcd60e51b8152602060048201526013602482015272115512081d1c985b9cd9995c8819985a5b1959606a1b6044820152606490fd5b634e487b7160e01b84526041600452602484fd5b610291565b60405162461bcd60e51b815260206004820152600e60248201526d4e6f204554482062616c616e636560901b6044820152606490fd5b5034610179578060031936011261017957602090604051908152f35b50346101795760203660031901126101795760209060ff906040906001600160a01b036103b4610d66565b168152600284522054166040519015158152f35b5034610179578060031936011261017957546040516001600160a01b039091168152602090f35b503461017957602036600319011261017957610409610d66565b6104116113d7565b6001600160a01b0316808252600260209081526040808420805460ff19169055518381527ff93f9a76c1bf3444d22400a00cb9fe990e6abe9dbb333fda48859cfee864543d9190a280f35b50346101795780600319360112610179576104756113d7565b61047d61143c565b6001805460ff60a01b1916600160a01b1790556040513381527f62e78cea01bee320cd4e420270b5ea74000d11b0c9f74754ebdbfc544b05a25890602090a180f35b5034610179578060031936011261017957600154336001600160a01b039091160361053157600180546001600160a01b0319908116909155815433918116821783556001600160a01b03167f8be0079c531659141344cd1fd0a4f28419497f9722a3daafe3b4186f6b6457e08380a380f35b63118cdaa760e01b815233600452602490fd5b5034610179578060031936011261017957602061055f610eb3565b6040516001600160a01b039091168152f35b503461017957806003193601126101795761058a6113d7565b600180546001600160a01b03199081169091558154908116825581906001600160a01b03167f8be0079c531659141344cd1fd0a4f28419497f9722a3daafe3b4186f6b6457e08280a380f35b5034610179578060031936011261017957602060ff60015460a01c166040519015158152f35b503461017957602036600319011261017957610616610d66565b61061e6113d7565b610626611400565b6040516370a0823160e01b8152306004820152906001600160a01b0316602082602481845afa91821561078857839261074f575b50811561071d57825460405163a9059cbb60e01b85526001600160a01b03909116600452602483905260208460448180865af160018551148116156106fe575b81604052156106ea5760207fd1c19fbcd4551a5edfb66d43d2e337c04837afda3482b42bdf569a8fccdae5fb9160018060a01b03865416948152a3600160008051602061145d8339815191525580f35b635274afe760e01b84526004829052602484fd5b600181151661071457823b15153d15161661069a565b503d84823e3d90fd5b60405162461bcd60e51b815260206004820152600a6024820152694e6f2062616c616e636560b01b6044820152606490fd5b9091506020813d602011610780575b8161076b60209383610e7b565b8101031261077b5751903861065a565b600080fd5b3d915061075e565b6040513d85823e3d90fd5b5034610179576060366003190112610179576107ad610d66565b60443567ffffffffffffffff81116108e8576107cd903690600401610d7c565b9190338452600260205260ff604085205416156108b15783916107ee611400565b6107f661143c565b6001600160a01b03610806610eb3565b16803b156108ad5783928360c48794604051988996879586936310ac2ddf60e21b855230600486015260018060a01b03166024850152602435604485015260a060648501528160a48501528484013783838284010152836084830152601f801991011681010301925af180156108a057610890575b600160008051602061145d8339815191525580f35b61089991610e7b565b388161087b565b50604051903d90823e3d90fd5b8380fd5b60405162461bcd60e51b815260206004820152600f60248201526e139bdd081dda1a5d195b1a5cdd1959608a1b6044820152606490fd5b8280fd5b5034610179578060031936011261017957602060405160018152f35b503461017957604036600319011261017957610922610d66565b602435908115158092036108e85760207fb72da108043eb1155ebce9deab6dce4c1eaa33bb0b31edf89a062057b78924769161095c6113d7565b6001600160a01b031692610971841515610e40565b838552600382526040852060ff1981541660ff8316179055604051908152a280f35b50346101795760203660031901126101795760209060ff906040906001600160a01b036109be610d66565b168152600384522054166040519015158152f35b50346101795780600319360112610179576109eb6113d7565b60015460ff8160a01c1615610a335760ff60a01b19166001556040513381527f5db9ee0a495bf2e6ff9c91a7834c1ba4fdd244a5e8aa4e537bd38aeae4b073aa90602090a180f35b638dfc202b60e01b8252600482fd5b50346101795760a036600319011261017957610a5c610d66565b906064356001600160a01b03811690602435908290036108e85760843567ffffffffffffffff81116108ad57610a96903690600401610d7c565b9094906001600160a01b03610aa9610eb3565b1693843303610ce4573003610c9f578561010091810103126108ad57610ace85610daa565b90610adb60208701610dbe565b610ae760408801610daa565b92610af460608901610dcc565b610b0060808a01610dbe565b90610b0d60a08b01610daa565b93610b1a60c08c01610dcc565b6001600160a01b03978816808c52600360205260408c2054958916989096919591169060ff1615610c5a57808b52600360205260ff60408c20541615610c1557610b6d87938a8a86610b739a8297610f5c565b93610f5c565b95604435840195868511610c0157506040610bd78789610bd260e07f18be1daca870ce76ea02f4cefe3c78f1a21c7d42693c068e2d0bbf060f53ab5396610bbf85610bf69f1015610ddc565b0135610bcb8484610e1d565b1015610ddc565b610e1d565b815195865260208601526001600160a01b0390921693849290a3611293565b602060405160018152f35b634e487b7160e01b81526011600452602490fd5b60405162461bcd60e51b815260206004820152601860248201527f53656c6c20726f75746572206e6f7420617070726f76656400000000000000006044820152606490fd5b60405162461bcd60e51b815260206004820152601760248201527f42757920726f75746572206e6f7420617070726f7665640000000000000000006044820152606490fd5b60405162461bcd60e51b815260206004820152601f60248201527f4f6e6c79207468697320636f6e74726163742063616e20696e697469617465006044820152606490fd5b60405162461bcd60e51b815260206004820152601360248201527210d85b1b195c881b5d5cdd081899481413d3d3606a1b6044820152606490fd5b905034610d625781600319360112610d62577f00000000000000000000000000000000000000000000000000000000000000006001600160a01b03168152602090f35b5080fd5b600435906001600160a01b038216820361077b57565b9181601f8401121561077b5782359167ffffffffffffffff831161077b576020838186019501011161077b57565b35906001600160a01b038216820361077b57565b359060ff8216820361077b57565b359062ffffff8216820361077b57565b15610de357565b60405162461bcd60e51b8152602060048201526012602482015271417262206e6f742070726f66697461626c6560701b6044820152606490fd5b91908203918211610e2a57565b634e487b7160e01b600052601160045260246000fd5b15610e4757565b60405162461bcd60e51b815260206004820152600c60248201526b5a65726f206164647265737360a01b6044820152606490fd5b90601f8019910116810190811067ffffffffffffffff821117610e9d57604052565b634e487b7160e01b600052604160045260246000fd5b60405163026b1d5f60e01b81526020816004817f00000000000000000000000000000000000000000000000000000000000000006001600160a01b03165afa908115610f5057600091610f0e575b506001600160a01b031690565b6020813d602011610f48575b81610f2760209383610e7b565b81010312610d625751906001600160a01b0382168203610179575038610f01565b3d9150610f1a565b6040513d6000823e3d90fd5b929490936001600160a01b039092169260ff90610f7a848787611293565b168061114157505060405193610f91606086610e7b565b6002855260208501926040368537855115611059578352845160011015611059576001600160a01b0316604085810191909152516338ed173960e01b815260048101919091526001602482015260a06044820152925160a48401819052839160c483019160005b81811061111f575050306064840152504260848301526000929082900390829084906001600160a01b03165af1908115610f505760009161106f575b508051600019810191908211610e2a5780518210156110595760209160051b01015190565b634e487b7160e01b600052603260045260246000fd5b3d8083833e61107e8183610e7b565b8101906020818303126108e85780519067ffffffffffffffff82116108ad57019181601f840112156101795782519267ffffffffffffffff841161110b578360051b9160208301946110d36040519687610e7b565b85526020808601938301019384116101795750602001905b8282106110fb5750505038611034565b81518152602091820191016110eb565b634e487b7160e01b82526041600452602482fd5b82516001600160a01b0316845286945060209384019390920191600101610ff8565b6001909593929491951460001461125b576040519061010082019082821067ffffffffffffffff831117610e9d5760409182529282526001600160a01b03938416602083810191825262ffffff9788168484019081523060608601908152426080870190815260a08701998a52600160c08801908152600060e08901818152975163414bf38960e01b815298518b1660048a015295518a1660248901529251909a166044870152518716606486015297516084850152955160a4840152955160c483015251831660e482015293849261010492849291165af1908115610f505760009161122c575090565b90506020813d602011611253575b8161124760209383610e7b565b8101031261077b575190565b3d915061123a565b60405162461bcd60e51b815260206004820152601060248201526f556e6b6e6f776e20444558207479706560801b6044820152606490fd5b9160009160206040519163095ea7b360e01b855260018060a01b031693846004528360245260448180885af1906001600051148216156113c8575b604052156112db57505050565b600060206040519163095ea7b360e01b8152846004528060245260448180885af1906001600051148216156113b0575b60405215611391576020906000906040519363095ea7b360e01b835260045260245260448180865af19060016000511482161561136f575b6040521561134e5750565b635274afe760e01b60009081526001600160a01b0391909116600452602490fd5b90600181151661138757823b15153d15161690611343565b503d6000823e3d90fd5b635274afe760e01b60009081526001600160a01b038416600452602490fd5b90600181151661138757843b15153d1516169061130b565b90843b15153d151616906112ce565b6000546001600160a01b031633036113eb57565b63118cdaa760e01b6000523360045260246000fd5b600260008051602061145d833981519152541461142b57600260008051602061145d83398151915255565b633ee5aeb560e01b60005260046000fd5b60ff60015460a01c1661144b57565b63d93c066560e01b60005260046000fdfe9b779b17422d0df92223018b32b4d1fa46e071723d6817e2486d003becc55f00a26469706673582212202e8bfb8edf15a05ff0d0c51155c65fa9a7d088aebfc8a10eb074b9cfd80c0a4764736f6c634300081c0033",
  "linkReferences": {},
  "deployedLinkReferences": {}
}